:020000040000fa
:080000000001040000000000f3
:020000040000fa
:100200004f8320000eff20000e0188000000000038
:100210000c000700605f20000100200011000700b3
:10022000000020000000e000020032000000020098
:10023000000000004e050200000000000040da004f
:100240000000fe004440a900000020000000e00083
:100250000300320000002000a00188004440a800f4
:100260000000060091018800800078000000eb008b
:1002700015003700e280400032a0b4009101ba00be
:10028000e280400032a0b4009102ba00e280400057
:1002900032a0b4000002eb00472bde00f507b200ed
:1002a000602ce10004003a000059eb008301e900f2
:1002b000fdff3e00040037006128e100010032002c
:1002c0000082eb00040007001101ba000200e00008
:1002d000e8ff3a00000006003159ba008301e90046
:1002e0000c0032002159ba008301e90008003200f5
:1002f0000400e00003003a00e280400032a0b400b5
:10030000f5ff370011d9ba008301e900faff3a007e
:100310008100e800e180400032a0b4000000060047
:100320000040da000000fe008700a9008720a90035
:10033000e7416000010a20009140780082cfb300bd
:1003400082c0600083c070008000fd00a0e0b700a4
:100350008000fd0001c7b30081416000010a200058
:1003600091407800f2c8b30082c0600083c0700082
:100370008000fd00a0e0b7008000fd006801600083
:100380004311de00f1082000914078000104a10033
:1003900082c070008000fd008fe0b7008000fd008b
:1003a0000008b2004700de0000404000f1082000d5
:1003b000914078000114a10080c070000100780015
:1003c0008fe0b7000000060018c2bf0061006000a7
:1003d00000000600f2108800b0108800c1108800ec
:1003e0000000060016c2bf0066406000e64f5000e5
:1003f00002003a00e010800000000600e0108000db
:10040000f00fb200000006008000780016c2bf00a6
:1004100066406000e64f500001003200f10fb2006c
:10042000d11088000000060003f0a200889fbe00e3
:100430008a9fbe008c1f7800da000700e1003300bd
:100440006450e1004f0032006420e10052003200ad
:1004500003826c0007003b000905d0000306d000b2
:10046000820f54000c065d000200390002003200c9
:1004700089017800030678008582550004003d005c
:100480000003fd008103fd008502ea008b85420028
:10049000840f720002003b0060001000e080180032
:1004a0006011b8000005eb007a28e1000a0039006d
:1004b00006007800c75ddd00f707b2008780750091
:1004c0002d003700828171000a017800610560000b
:1004d0008180d1000080d3008502e900f9ff3b0054
:1004e000060440008784480002003b0060041400ba
:1004f000e0841c000988a300070032008a81710093
:1005000082817100610164008904d1000884d300f4
:100510008b05e800170037000978a30013003a00a4
:100520000b00e000130034008b05e90008044400d0
:1005300089844c000a4474000978a3000d003a0035
:100540000b00e000070034008b05e90008044400bc
:1005500089844c0001003a000b0020000978a300b8
:10056000f7ff32000001eb000200370082817100ca
:100570000a017800500007000cf0a70001f0a0006d
:10058000990037006420e10002003a00838f6c007c
:10059000990033000801be000200be00920037003f
:1005a0000001be006a0007000470a70003f0a1006c
:1005b00003f8a30013003a006509b10010003200ef
:1005c000090035006928e10002003500010028001b
:1005d0000000050000004000818048008502e9001d
:1005e000fcff3a0000000600f88f420005003500cd
:1005f0008100d1000080d3008502e800fcff3a00b2
:10060000000006008000eb0000000500889fbe008f
:100610008a9fbe00010578000100e000040035005b
:1006200008003c000000e000200032000500370018
:1006300060001000e080180002003b0001f02c0078
:100640001a0037000004be006011b8006b092000da
:100650000982cf00020039000882cf000441b000b7
:10066000694252000e00320008003b008281710096
:10067000610164008904d1000884d3008b05e8007f
:100680000442e800f9ff3a0005003700080444007e
:1006900089844c008b05e9000442e900fbff3a0025
:1006a000050007000af0a70001f0a0004f05be00fa
:1006b0004f04be000000060081002000618055004c
:1006c0000b003d000b00200061fe2f000100e10047
:1006d0001d00340082817100610164008904d10031
:1006e0000884d3000000e800faff3a0071002000ff
:1006f0006100640003007000020060000900320025
:1007000061044400e0844c000988a5000500320023
:100710008b05e8006808e10002003a008904d10076
:100720000884d300f20f20000258e10005003d00cc
:10073000c75ddd00f907b200898075000800780008
:10074000000006000bf827008b0078000000050071
:10075000c70ade00f107b200f50fb2000800320050
:10076000e1cf4200020032000170a0002400050029
:10077000810f7000010032000408050044000500ec
:10078000810f700002003a00140005008502e900a4
:100790000000400081c04800fcff3b000170a00049
:1007a000240005000004be00e9ff07000003be00ae
:1007b0000405be000200be00e5ff0700844f75007f
:1007c000000006000200be006450e1000500360093
:1007d0006420e100020036000968a30001003a002d
:1007e0000800be000160a0004f0678004f05be0063
:1007f0004f04be0000000600f0ff2f00f1ff2700ad
:10080000f9ff3700889fbe008a9fbe008c1f7800ca
:10081000e4ff0700ebff330003866c006450e10047
:10082000240032006420e100270032006150e10022
:10083000220032006120e100210032008b8542005d
:10084000eb07b1000134b800003ab80008044200d8
:1008500089844a00013ab8000030b800888040001e
:1008600009014a0004003300000040008180480074
:10087000020149008b05e900c909dd008301700010
:100880000100320013002000c814de004814dd000f
:100890004709de001200b200c808de0008847000bc
:1008a00085ff070001f0a1000cf0a70001f0a000f7
:1008b000cdff37006120e100cfff32000801be000c
:1008c0000200be00f7ff37006150e100fcff3a0074
:0408d000c9ff370025
:020000040000fa
:0200000401f009
:04000000f6bf000047
:020000040000fa
:0200000401f009
:04000400ff7f00007a
:020000040000fa
:0200000401f009
:040008007fff000076
:020000040000fa
:1000080090010000900100009001000090010000a4
:100018009001000090010000900100009001000094
:100028009001000090010000900100007e04000093
:100038009001000090010000900100009001000074
:10004800900100006a040000900100009001000087
:100058009001000090010000900100009001000054
:100068009001000090010000900100009001000044
:100078009001000090010000900100009001000034
:100088009001000090010000900100009001000024
:100098009001000090010000900100009001000014
:1000a8009001000090010000900100009001000004
:1000b80090010000900100009001000090010000f4
:1000c80090010000900100009001000090010000e4
:1000d80090010000900100009001000090010000d4
:1000e80090010000900100009001000090010000c4
:0800f8009001000090010000de
:020000040000fa
:1001080090010000900100009001000090010000a3
:100118009001000090010000900100009001000093
:100128009001000090010000900100007e04000092
:100138009001000090010000900100009001000073
:10014800900100006a040000900100009001000086
:100158009001000090010000900100009001000053
:100168009001000090010000900100009001000043
:100178009001000090010000900100009001000033
:100188009001000090010000900100009001000023
:100198009001000090010000900100009001000013
:1001a8009001000090010000900100009001000003
:1001b80090010000900100009001000090010000f3
:1001c80090010000900100009001000090010000e3
:1001d80090010000900100009001000090010000d3
:1001e80090010000900100009001000090010000c3
:0801f8009001000090010000dd
:020000040000fa
:1008d4003400f800881f780008002000a801880070
:1008e4004f0478000000fa008520a9000080fa0077
:1008f4003400f90000400600801f78003400f8003e
:1009040000002000a00188000000fa001000200070
:10091400004088008460a9000080fa003400f900d7
:100924004f007800004006000800fa00e0f72f00ae
:100934007cfe070000f02d0020079800d0752f00e2
:1009440010079800a0002000000f78001e01780016
:100954009e0090002e0090009dfe070070f72f006f
:1009640070fe07000080fa00000006000000fa0094
:10097400011c200091407800c0cfb30000c060008b
:10098400c0e1b700c3e1a900011c20009140780038
:1009940030cfb30000c060000034a000c0e1b70055
:1009a400801a2600200e8800409c2000b00e88008b
:1009b400c881a800c801a800c901a900c1e1a80014
:1009c4000080fa00000006000000fa00e0ff2f009b
:1009d40040158800a3c2bf007f40600001c8b30077
:1009e40001407000a3e2b700412a20009140780042
:1009f40000ccb30000c0600071c2b30001407000bd
:100a0400a4e2b700a4e2a900a5c2bf00f041b3006c
:100a1400a5e2b7000000eb0030158800312a200061
:100a240091407800c0cfb30000c06000a3e2b700db
:100a34000000eb00501588000000eb000015880052
:100a4400012a20009140780000ceb30000c070005d
:100a5400a0e2b700a1e2a8000080fa0000000600ae
:100a64000000fa00c702a90041102000914078005c
:100a7400f0ccb30000c060000044a00004e1b70063
:100a84000421a9008c60a80000352c0010088800ff
:100a94000080fa00000006000a00fa00f0ff0700d8
:100aa400a1ff0700b1ff0700c7ff070005e1a80089
:100ab400a022a800a0c2bf00614060000004e000c2
:100ac400fcff320000148000100798001e00900004
:100ad4000000fb004bfe07001e0090004800de00f3
:100ae4000000fb0047fe070018c2bf006240600020
:100af4000004e000010032001822a90031fe0700c2
:100b04000004e000fdff320035fe0700000f78000e
:100b1400f00f20009e0f100003003a00409c2000bc
:100b240020079800180037001e007800cf80de00f0
:100b3400b5fe070030079800410798001e00e0004a
:100b440007003d0002002000037824003e009000ce
:100b5400ce00900034fe070030079800410798004b
:100b640002002000030224003e009000ce0090000a
:100b740023ff070002002e00b35224002afe0700c0
:100b840086fe0700200798002e009000b00e880013
:100b9400004080000000e000fdff3200c9c2bf0039
:100ba400614060000004e00002003200cb02a900b2
:100bb40001003700cb02a8000000eb0000408800d1
:100bc40005e1a90000352c001008880005e1a80003
:100bd4000100370002fe0700fafd07000004e000f0
:080be400fcff3a00b2ff3700ec
:020000040000fa
:100bec0000080000020000000200000000000000ed
:040bfc0000000000f5
:00000001FF
